:1000000026C040C03FC03EC03DC0B9C03BC03AC0A2
:1000100039C038C037C036C035C034C033C0000026
:10002000000037000000000038000000000036002B
:10003000020202020202020202020102040810206D
:10004000200410080102000000000000000011243C
:100050001FBECFE5D1E0DEBFCDBF10E0A0E6B0E02F
:10006000E4E7F4E002C005900D92AC39B107D9F78E
:1000700010E0ACE9B0E001C01D92A93AB107E1F788
:10008000ECD1F6C1BDCFEF92FF920F931F93CF93A8
:10009000DF93182F092F80E061E038D180E060E025
:1000A00074D1212F302FC901EC0181E0E82EF12C11
:1000B00000E010E081E09DD1E816F906D9F381E077
:1000C00098D17C0180E0688160D181E092D1E8160E
:1000D000F906D9F381E08DD17C010F5F1F4F229685
:1000E0000A30110539F780E061E04FD180E060E02F
:1000F0000DD1DF91CF911F910F91FF90EF90089557
:1001000083E077D19C0190939D0080939C00809127
:100110009E0090919F008217930779F030939F0083
:1001200020939E002130310519F488E890E0ABDF80
:1001300068EC70E080E090E076D0089580E690E092
:10014000A2DF62E370E080E090E06DD084E790E0B1
:100150009ADF62E370E080E090E065D0089583E08C
:1001600060E0D4D080E060E0D1D081E060E0CED02B
:1001700060ED77E080E090E056D0E0DF08951F92D8
:100180000F920FB60F9211242F933F934F935F93CB
:100190006F937F938F939F93AF93BF932091A4000E
:1001A0003091A5004091A6005091A7007091A80041
:1001B000DA01C9014096A11DB11D672F605D6D3741
:1001C00030F06D57DA01C9014196A11DB11D609350
:1001D000A8008093A4009093A500A093A600B093DC
:1001E000A7008091A0009091A100A091A200B091E1
:1001F000A3000196A11DB11D8093A0009093A100C2
:10020000A093A200B093A300BF91AF919F918F9153
:100210007F916F915F914F913F912F910F900FBE02
:100220000F901F9018959B01AC017FB7F8948091B7
:10023000A0009091A100A091A200B091A30062B78C
:1002400008B601FE05C06F3F19F00196A11DB11D52
:100250007FBFBA2FA92F982F8827860F911DA11D28
:10026000B11D66E0880F991FAA1FBB1F6A95D1F7C1
:10027000BC012EC0FFB7F8948091A0009091A1001E
:10028000A091A200B091A300E2B708B601FE05C09C
:10029000EF3F19F00196A11DB11DFFBFBA2FA92F85
:1002A000982F88278E0F911DA11DB11DE6E0880FA4
:1002B000991FAA1FBB1FEA95D1F7861B970B885E73
:1002C0009340C0F2215030404040504068517C4F34
:1002D000211531054105510569F6089578948AB5CF
:1002E00082608ABD8AB581608ABD83B7826083BF20
:1002F00083B7816083BF89B7826089BF80B782601E
:1003000080BF329A319A309A379A0895CF93DF930B
:10031000482F50E0CA01865C9F4FFC013491405D3C
:100320005F4FFA018491882369F190E0880F991F4B
:10033000FC01E25EFF4FA591B491FC01EC5DFF4F23
:10034000C591D491662351F42FB7F8948C91932FD3
:10035000909589238C93888189230BC0623061F446
:100360002FB7F8948C91932F909589238C93888143
:10037000832B88832FBF06C09FB7F8948C91832B63
:100380008C939FBFDF91CF910895482F50E0CA0111
:100390008C5B9F4FFC012491CA01865C9F4FFC013E
:1003A0009491405D5F4FFA013491332309F1222388
:1003B00059F0213019F0223039F403C08AB58F7713
:1003C00002C08AB58F7D8ABDE32FF0E0EE0FFF1FDC
:1003D000EC5DFF4FA591B4912FB7F894662321F4FB
:1003E0008C919095892302C08C91892B8C932FBF7F
:1003F0000895682F70E0CB018C5B9F4FFC01249126
:10040000CB01865C9F4FFC014491605D7F4FFB01F7
:100410009491992319F420E030E01DC0222359F073
:10042000213019F0223039F403C08AB58F7702C029
:100430008AB58F7D8ABD892F90E0880F991F865DD0
:100440009F4FFC01A591B4918C9120E030E0842372
:1004500011F021E030E0C9010895CF93DF933EDF32
:100460007EDEC0E0D0E04CDE2097E9F3C9DDFBCFB3
:04047000F894FFCF2E
:100474000000000001000000000000000000010076
:100484000000000000000000010000000000000067
:100494000000010000000100000000000000000056
:0C04A4000000000000000100000000004B
:00000001FF
